S01800005350495F536C6176655F4465766963652E7372656317
S113000071C0000079C0000077C0000075C0000016
S113001073C0000071C000006FC000006DC000001C
S11300206BC0000069C0000067C0000065C000002C
S113003063C0000061C000005FC000005DC000003C
S11300405BC0000059C0000057C0000055C000004C
S113005053C0000051C000004FC000004DC000005C
S11300604BC0000049C0000047C0000045C000006C
S113007043C0000041C000003FC000003DC000007C
S11300803BC0000039C0000037C0000035C000008C
S113009033C0000031C000002FC000002DC000009C
S11300A02BC0000029C0000027C0000025C00000AC
S11300B023C0000021C000001FC000001DC00000BC
S11300C01BC0000019C0000017C0000015C00000CC
S11300D013C0000011C000000FC000000DC00000DC
S11300E00BC0000011241FBECFEFD1E2DEBFCDBF95
S11300F000E00CBF31D03FC083CF84B1887F84B986
S1130100239A80E48CBD08951092C50087E68093FD
S1130110C40088E18093C10086E08093C200089502
S11301200DB407FEFDCF8EB508950DB407FEFDCFC7
S11301308EBD0895E0ECF0E0908195FFFDCF90E056
S113014012D08093C6000895E0ECF0E0808188230B
S1130150ECF78091C6000895D0DFD6DFE1DFEADF57
S1130160F3DFE3DFFBCF9111089581568A5108F440
S10D0170805285580895F894FFCFDB
S9030000FC
