:1000000071C0000079C0000077C0000075C000001A
:1000100073C0000071C000006FC000006DC0000020
:100020006BC0000069C0000067C0000065C0000030
:1000300063C0000061C000005FC000005DC0000040
:100040005BC0000080C0000057C0000055C0000029
:1000500053C0000051C000004FC000004DC0000060
:100060004BC00000B4C0000047C0000045C0000005
:1000700043C0000041C000003FC000003DC0000080
:100080003BC0000039C0000037C0000035C0000090
:1000900033C0000031C000002FC000002DC00000A0
:1000A0002BC0000029C0000027C0000025C00000B0
:1000B00023C0000021C000001FC000001DC00000C0
:1000C0001BC0000019C0000017C0000015C00000D0
:1000D00013C0000011C000000FC000000DC00000E0
:1000E0000BC0000011241FBECFEFD1E2DEBFCDBF99
:1000F00000E00CBF64D097C083CF84B1876084B91F
:100100002398289A8CB581658CBD8CB5877F8CBD72
:100110008CB58B7F8CBD8DB58E7F8DBD0895E0EC49
:10012000F0E0908195FFFDCF8093C60008958FEF9A
:100130008EBD0DB407FEFDCF8EB508958EBD0DB4F6
:1001400007FEFDCF08951F920F920FB60F92112454
:100150000BB60F922F933F934F935F936F937F93C1
:100160008F939F93AF93BF93EF93FF9385B1805885
:1001700085B981E490E0E2DFFF91EF91BF91AF910B
:100180009F918F917F916F915F914F913F912F91AF
:100190000F900BBE0F900FBE0F901F901895E1ECC3
:1001A000F0E088E1808386E08093C2001092C50071
:1001B00087E68093C4008081806880830895279AB1
:1001C000EEDF9BDF78942898B2DFA9DFFDCF1F9286
:1001D0000F920FB60F9211240BB60F922F933F93ED
:1001E0004F935F936F937F938F939F93AF93BF933F
:1001F000EF93FF938091C60095B1905895B99EDF1B
:10020000FF91EF91BF91AF919F918F917F916F91EE
:100210005F914F913F912F910F900BBE0F900FBEAA
:0A0220000F901F901895F894FFCF7F
:00000001FF
