:1000000019C1000037C1000035C1000033C1000034
:1000100031C100002FC100002DC100002BC1000024
:1000200029C1000027C1000025C1000023C1000034
:1000300021C100001FC100001DC100001BC1000044
:1000400019C1000017C1000015C1000013C1000054
:1000500011C100000FC100000DC100000BC1000064
:1000600009C1000007C1000005C1000003C1000074
:1000700001C10000FFC00000FDC00000FBC0000087
:10008000F9C00000F7C00000F5C00000F3C0000098
:10009000F1C00000EFC00000EDC00000EBC00000A8
:1000A000E9C00000E7C00000E5C00000E3C00000B8
:1000B000E1C00000DFC00000DDC00000DBC00000C8
:1000C000D9C00000D7C00000D5C00000D3C00000D8
:1000D000D1C00000CFC00000CDC00000CBC00000E8
:1000E000C9C000006E616E00696E660000407A1043
:1000F000F35A00A0724E18090010A5D4E80000E8D9
:100100007648170000E40B54020000CA9A3B000036
:1001100000E1F505000080969800000040420F00C5
:100120000000A08601000000102700000000E80386
:10013000000000006400000000000A000000000051
:100140000100000000002C76D888DC674F0823DF10
:10015000C1DFAE59E1B1B796E5E3E453C63AE651E3
:10016000997696E8E6C28426EB898C9B62ED407C0A
:100170006FFCEFBC9C9F40F2BAA56FA5F490055AA6
:100180002AF75C936B6CF9676DC11BFCE0E40D47CB
:10019000FEF520E6B500D0ED902E030094357705EE
:1001A0000080841E080000204E0A000000C80C33A6
:1001B0003333330F986E12831141EF8D2114893B35
:1001C000E65516CFFEE6DB18D1844B381BF77C1DB5
:1001D000901DA4BBE424203284725E228100C9F108
:1001E00024ECA1E53D276364696E6F7073757858E0
:1001F0005B65666745464700616E006E66696E69BD
:10020000747900CDCCCC3D0AD7233C17B7D13877D1
:10021000CC2B329595E6241FB14F0A0000204100F7
:1002200000C84200401C4620BCBE4CCA1B0E5AAE41
:10023000C59D740011241FBECFEFD1E2DEBFCDBF3C
:1002400000E00CBF12E0A0E0B2E0E4E6F8E100E07C
:100250000BBF02C007900D92AE30B107D9F722E074
:10026000AEE0B2E001C01D92A431B207E1F712D0B6
:100270000C94300CC5CE239A2B9A08952B982FE717
:100280008DEE90E0215080409040E1F700C00000EA
:100290002398089527D0EFDF2FEF83ED90E32150CF
:1002A00080409040E1F700C00000E8DFFECFE0ECC6
:1002B000F0E0908195FFFDCF8093C6000895CF9325
:1002C000E0ECF0E080818823ECF7C091C600CA30F2
:1002D00029F08C2FECDF8C2F90E002C08FEF9FEF86
:1002E000CF910895EEE0F2E080E092E09383828384
:1002F000918380831092C50087E68093C40088E1D3
:100300008093C10086E08093C20008952F923F92AF
:100310004F925F926F927F928F929F92AF92BF9215
:10032000CF92DF92EF92FF920F931F93CF93DF93C1
:10033000CDB7DEB760970FB6F894DEBF0FBECDBF66
:100340007C011B016A01FC0117821682838181FFF7
:1003500035C39E012F5F3F4F3901F7019381F101B2
:1003600093FD859193FF81911F01882309F422C396
:10037000853239F493FD859193FF81911F01853278
:1003800039F4B70190E00E947A0B56016501E5CF80
:1003900010E0512C912CFFE1F915D8F08B3279F057
:1003A00038F4803279F08332A1F4F92DF0612EC057
:1003B0008D3261F0803369F4292D21602DC0392DF3
:1003C0003260932E892D8460982E2AC0E92DE86032
:1003D00015C097FC2DC020ED280F2A3088F496FE1A
:1003E00006C03AE0139F200D1124122F19C08AE095
:1003F000589E200D1124522EE92DE0629E2E10C031
:100400008E3231F496FCD6C2F92DF0649F2E08C0CE
:100410008C3621F4292D2068922E02C0883641F4B2
:10042000F10193FD859193FF81911F018111B3CF5C
:100430009BEB980F933020F4992D9061805E07C05C
:100440009BE9980F933008F063C1992D9F7E96FF2A
:1004500016E09F73992E853619F49064992E08C082
:10046000863621F4392F3068932E02C011111150B5
:1004700097FE07C01C3350F444244394410E27E0F8
:100480000BC0183038F027E017E005C027E09CE3E8
:10049000492E02C0212F412C560184E0A80EB11C28
:1004A000F6016081718182819381042DA301DBD7E4
:1004B0006C01F981FC87F0FF02C0F3FF06C091FCDC
:1004C00006C092FE06C000E205C00DE203C00BE2CA
:1004D00001C000E08C858C7019F001114DC28AC2F8
:1004E00097FE10C04C0CFC85F4FF04C08A81813358
:1004F00009F44A94141474F528E0241578F588E07A
:10050000482E2CC096FC2AC0812F90E08C159D05AA
:100510009CF03CEFC3163FEFD30674F0892D806842
:10052000982E0AC0E2E0F0E0EC0FFD1FE10FF11D94
:100530008081803319F411501111F4CF97FE0EC051
:1005400044244394410E812F90E0C816D9062CF420
:100550001C1904C04424439401C010E097FE06C057
:100560001C141D0434F4C601019605C085E090E01A
:1005700002C081E090E001110196112331F0212F9A
:1005800030E02F5F3F4F820F931F252D30E0821701
:10059000930714F4581A01C0512C892D897049F41D
:1005A000552039F0B70180E290E00E947A0B5A940E
:1005B000F7CF002329F0B701802F90E00E947A0B3B
:1005C00093FC09C0552039F0B70180E390E00E9408
:1005D0007A0B5A94F7CF97FE4CC04601D7FE02C063
:1005E000812C912CC60188199909F301E80FF91F94
:1005F000FE87ED87960124193109388B2F87012F4B
:1006000010E01195019511093FEF8316930629F427
:10061000B7018EE290E00E947A0BC814D9044CF026
:100620008F8598898815990524F4ED85FE8581814B
:1006300001C080E3F1E08F1A91082D853E852F5F80
:100640003F4F3E872D87801691062CF0B70190E032
:100650000E947A0BD9CFC814D90441F49A819633F9
:1006600020F4953319F43C8534FF81E3B70190E021
:100670004DC08A81813319F09C859F7E9C87B7018C
:1006800090E00E947A0B111105C094FC18C085E619
:1006900090E017C0B7018EE290E00E947A0B1E5FD7
:1006A00082E001E0080FF301E80FF11D8081B7013E
:1006B00090E00E947A0B802F0113F3CFE6CF85E400
:1006C00090E0B7010E947A0BD7FC06C0C114D10498
:1006D00041F4EC85E4FF05C0D194C194D1088DE2CA
:1006E00001C08BE2B70190E00E947A0B80E32AE020
:1006F000C216D1042CF08F5FFAE0CF1AD108F7CFE1
:10070000B70190E0F7D7B701C601C096F3D749C14A
:10071000833631F0833779F0833509F052C01FC03A
:10072000560132E0A30EB11CF6018081898301E0FD
:1007300010E0630111C05601F2E0AF0EB11CF601EA
:10074000C080D18096FE03C0612F70E002C06FEFC1
:100750007FEFC60186D78C01F92DFF7713C05601B4
:1007600022E0A20EB11CF601C080D18096FE03C02B
:10077000612F70E002C06FEF7FEFC60167D78C0179
:10078000F92DF0689F2EF3FD18C0852D90E0081715
:10079000190798F4B70180E290E0ACD75A94F5CFEE
:1007A000F60197FC859197FE81916F01B70190E06A
:1007B000A1D751105A94015011090115110581F763
:1007C000F0C0843611F0893659F5560197FE09C0FC
:1007D00024E0A20EB11CF6016081718182819381B7
:1007E0000AC0F2E0AF0EB11CF60160817181072EE4
:1007F000000C880B990BF92DFF769F2E97FF09C0EF
:1008000090958095709561957F4F8F4F9F4FF068C1
:100810009F2E2AE030E0A301C2D7C82EC6183EC0E2
:10082000092D853721F40F7E2AE030E01DC0097FB5
:100830008F3691F018F4883559F0BCC0803719F024
:10084000883711F0B7C0006104FF09C0046007C019
:1008500094FE08C0066006C028E030E005C020E134
:1008600030E002C020E132E0560107FF09C084E019
:10087000A80EB11CF601608171818281938108C04C
:10088000F2E0AF0EB11CF6016081718180E090E072
:10089000A30185D7C82EC6180F77902E96FE0BC0E1
:1008A000092D0E7FC11650F494FE0AC092FC08C0B8
:1008B000092D0E7E05C0DC2C092D03C0DC2C01C0E7
:1008C000D12E04FF0DC0FE01EC0DF11D808180339F
:1008D00011F4097E09C002FF06C0D394D39404C06A
:1008E000802F867809F0D39403FD10C000FF06C066
:1008F0001C2DD51478F4150D1D190CC0D51450F409
:10090000B70180E290E0F6D6D394F8CFD51410F476
:100910005D1801C0512C04FF0FC0B70180E390E0C7
:10092000E9D602FF16C001FD03C088E790E002C0CF
:1009300088E590E0B7010CC0802F867851F001FF68
:1009400002C08BE201C080E207FD8DE2B70190E0BA
:10095000D1D6C11630F4B70180E390E0CBD6115068
:10096000F8CFCA94F301EC0DF11D8081B70190E03E
:10097000C1D6C110F6CF15C0F4E0F51550F584E0EE
:10098000581A93FE1EC0011125C02C8523FF27C0D5
:1009900004EE10E0392D3071932EF801849181110D
:1009A00021C0552009F4F2CCB70180E290E0A2D634
:1009B0005A94F7CFF7018681978123C08FEF9FEF7D
:1009C00020C0B70180E290E095D65A945110F9CF3B
:1009D000DACF512CB701802F90E08CD6D6CF08EE1D
:1009E00010E0D8CF91108052B70190E083D60F5F0E
:1009F0001F4FD3CF23E0251510F483E0C1CF512C36
:100A0000C4CF60960FB6F894DEBF0FBECDBFDF91A6
:100A1000CF911F910F91FF90EF90DF90CF90BF90FB
:100A2000AF909F908F907F906F905F904F903F908E
:100A30002F90089520FD09C0FC0123FD05C022FF71
:100A400002C07383628351834083089544FD17C0BD
:100A500046FD17C0AB01BC01DA01FB01AA0FBB1FA9
:100A6000EE1FFF1F1094D1F74A0F5B1F6E1F7F1FF1
:100A7000CB01BA01660F771F881F991F09C033E0A9
:100A800001C034E0660F771F881F991F3150D1F7DE
:100A9000620F711D811D911D08950F931F93CF93B8
:100AA000DF938C01C801E8D5EC0197FD06C0B3D5F2
:100AB000892BC1F7B801CE0159D6CE01DF91CF9174
:100AC0001F910F9108958F929F92AF92BF92CF92F4
:100AD000DF92EF92FF920F931F93CF93DF937C01EE
:100AE0008B016A01D22FC8D59C0133272B323105E7
:100AF00021F02D32310551F4D0680150110911F463
:100B000080E064C0C701B8D597FDFACFCD2FCD7F67
:100B10002D2F207309F58033F9F4580181E0A81ACC
:100B2000B10809F440C0C701A7D597FD3CC09C019E
:100B30002F7D33272835310549F4C264025011094D
:100B400091F1C70199D597FF07C02DC0D6FF02C00C
:100B5000C26001C0C2618501812C912C540120ED3D
:100B6000280F283078F0C4FF03C0B701FFD518C0A4
:100B70002A3040F0C6FFF9CF2F7D3FEE320F3630DE
:100B8000A0F727504C2FC501B40160DF4B015C0179
:100B9000C2600150110951F0C7016ED597FFDFCF38
:100BA000C1FD04C0ADCF812C912C5401C7FF08C0FA
:100BB000B094A09490948094811C911CA11CB11CB1
:100BC0002C2FB501A401C60135DF81E0DF91CF9163
:100BD0001F910F91FF90EF90DF90CF90BF90AF905B
:100BE0009F908F9008954F925F926F927F928F9215
:100BF0009F92AF92BF92CF92DF92EF92FF920F93AC
:100C00001F93CF93DF93CDB7DEB7A0970FB6F894BD
:100C1000DEBF0FBECDBF5C014B017A018E010F5FBD
:100C20001F4F680180E2F80111928A95E9F7F501FA
:100C3000538040E050E0612C90E0712CA1E0B0E0E6
:100C4000F90153FC859153FE81918F01482E9F013C
:100C5000811103C080E090E094C08E3519F44115F5
:100C6000510551F1672D70E0641775073CF48D351F
:100C700061F18D3219F4992311F103C0992309F41C
:100C80006BC0842D869586958695F601E80FF11D3B
:100C9000842D87708D0102C0000F111F8A95E2F725
:100CA000C8019081892B8083641459F0461410F494
:100CB0004394E7CF4A94E5CF7724739403C091E03F
:100CC00001C090E04F5F5F4FBBCF992319F08E8139
:100CD00080628E83711003C07724739419C0F6016B
:100CE0009E012F5D3F4F8081809581932E173F0796
:100CF000D1F7F2CFE114F10431F0F7018083B701AD
:100D00006F5F7F4F7B0171E0871A9108712CE9F0CA
:100D1000C501B2D497FD17C0FC01FF2723E0F5956C
:100D2000E7952A95E1F7EC0DFD1D208130E0AC013F
:100D30004770552702C0359527954A95E2F720FD63
:100D4000D9CFB50113D5711085CFE114F10411F09D
:100D5000F7011082C80115C0682F669566956695E3
:100D6000F601E60FF11D682F67708D0102C0000FBC
:100D7000111F6A95E2F7B8017081672B6083682EB6
:100D8000A1CFA0960FB6F894DEBF0FBECDBFDF9106
:100D9000CF911F910F91FF90EF90DF90CF90BF9078
:100DA000AF909F908F907F906F905F904F9008953D
:100DB0002F923F924F925F926F927F929F92AF924B
:100DC000BF92CF92DF92EF92FF920F931F93CF9338
:100DD000DF936C018B011A014FD4EC0199278B3200
:100DE000910529F08D9779F430E8932E01C0912C6C
:100DF0000150110911F480E0FEC0C6013DD4EC01A0
:100E000097FF02C0F8CF912CCE010DD48936910501
:100E100031F08E36910581F5C8EFD1E002C0CBEFFD
:100E2000D1E02196FE013197B490BB20B1F0015082
:100E3000110979F0C60120D47C0197FD0AC0F3D3D3
:100E40009927EB2DF0E08E179F0759F3B601C701E4
:100E50008DD4CE5FD14079F603C0CB5FD14029F06D
:100E600080E090E0A0E8BFE704C080E090E0A0EC64
:100E7000BFE7BC01CD01AFC0412C512C3201E12CA8
:100E8000F12C2C2F20532A3008F5E92DE260BE2EDC
:100E9000892D887092FE06C081111FC0FFEFEF1AE6
:100EA000FF0A1BC0882319F081E0E81AF10840E22C
:100EB000C301B201CBDD2B013C0168397949894975
:100EC000994158F0F92DF660BF2E07C02E3F81F4EE
:100ED00093FC0EC0292D2860B22E0150110939F063
:100EE000C601CAD3EC019B2C97FFCBCF01C09B2C32
:100EF00091FE81CFCE018F7D99278534910509F030
:100F00003EC0580181E0A81AB10809F474CFC601A7
:100F1000B3D3EC0197FD6FCF99278B32910529F060
:100F20008D9761F4E92DE0619E2E5801F2E0AF1A31
:100F3000B10809F460CFC6019FD3EC01CE01C09780
:100F40000A9708F058CF8501A12CB12CB501BB0C34
:100F5000880B990B2C2F205340E278DD5B01015068
:100F6000110931F0C60188D3EC01C0970A9770F3DC
:100F700094FE03C0B194A194B108EA0CFB1C012BB0
:100F800029F0D7FD03C0B601CE01F0D3C301B201F1
:100F900079D1F7FE06C0F194E194F108C7E1D2E0FF
:100FA00002C0CFE2D2E06E0128E1C21AD10800E20D
:100FB00010E0E016F10648F0FE01259135914591CB
:100FC00054919DD1E01AF10AF4CF24971695079514
:100FD000CC16DD0671F797FE05C0DC01CB01B058D9
:100FE000BC01CD012114310429F0F101608371832A
:100FF0008283938381E0DF91CF911F910F91FF90C6
:10100000EF90DF90CF90BF90AF909F907F906F90C8
:101010005F904F903F902F9008956F927F928F92A4
:101020009F92AF92BF92CF92DF92EF92FF920F9377
:101030001F93CF93DF935C01EB014A01FC01178200
:101040001682612CF5010381FE0103FD859103FFEA
:101050008191182FEF01882309F400C190E0DBD2C1
:10106000892B19F0C50119DDEDCF153241F4FE01D0
:1010700003FD159103FF1191EF01153271F4C501C4
:10108000FBD297FDE9C0412F50E09C013327241784
:101090003507C1F2B5016AD3E1C01A3241F403FD4C
:1010A000159103FF1191EF017724739401C0712C06
:1010B000E12CF12C20ED210F2A3080F4F72DF26085
:1010C0007F2EB70180E090E040E2C0DC7B01FE01B2
:1010D00003FD159103FF1191EF01ECCF71FE04C0E8
:1010E000E114F10421F4BAC0EE24EA94FE2C18367F
:1010F00019F01C3661F014C0FE0103FD159103FFC9
:101100001191EF01183661F4872D8860782E972DA4
:101110009460792EFE0103FD159103FF1191EF01FB
:10112000112309F49BC0612F70E086EE91E083D219
:10113000892B09F493C070FC07C0F401C080D180F2
:10114000C40102964C0102C0C12CD12C1E3649F4B8
:10115000F5014681578160E070E0272DC6016ADC09
:1011600071CF1336B1F471FC03C0EE24E394F12C7B
:10117000C50182D297FD70C0C114D10429F0F601D7
:101180008083C60101966C0191E0E91AF10881F7AC
:101190005FC01B3551F49E01A601B701C50123DDD7
:1011A000EC01892B09F054C04EC0C50176DC97FDD7
:1011B00053C01F36C9F140F4143691F11936B9F114
:1011C000183509F03AC028C01337A9F018F41037C1
:1011D00019F133C0153721F11837F1F02EC0C114C1
:1011E000D10429F0F6010083C60101966C0191E05B
:1011F000E91AF10859F0C5013FD28C0197FD06C0EC
:101200000AD2892B61F3B501C801B0D2C114D1044F
:10121000F9F0F60110821CC0F72DF0647F2E07C094
:10122000872D8062782E03C0972D9061792E272D0F
:10123000A601B701C50147DC04C0A601B701C5017D
:10124000B7DD811105C0F5018381807329F406C0E3
:1012500070FCF8CE6394F6CE662019F0862D90E0EF
:1012600002C08FEF9FEFDF91CF911F910F91FF9001
:10127000EF90DF90CF90BF90AF909F908F907F9036
:101280006F900895E89409C097FB3EF4909580957F
:10129000709561957F4F8F4F9F4F9923A9F0F92F3C
:1012A00096E9BB279395F695879577956795B795BA
:1012B000F111F8CFFAF4BB0F11F460FF1BC06F5FA0
:1012C0007F4F8F4F9F4F16C0882311F096E911C0B2
:1012D000772321F09EE8872F762F05C0662371F0D3
:1012E00096E8862F70E060E02AF09A95660F771FE7
:1012F000881FDAF7880F9695879597F908950BD090
:1013000078C069D028F06ED018F0952309F05AC043
:101310005FC01124A2C07ED0A0F3959FD1F3950F9A
:1013200050E0551F629FF001729FBB27F00DB11D69
:10133000639FAA27F00DB11DAA1F649F6627B00DF9
:10134000A11D661F829F2227B00DA11D621F739FE2
:10135000B00DA11D621F839FA00D611D221F749FF0
:101360003327A00D611D231F849F600D211D822F37
:10137000762F6A2F11249F5750408AF0E1F088237E
:101380004AF0EE0FFF1FBB1F661F771F881F91508B
:101390005040A9F79E3F510570F014C05EC05F3FFA
:1013A000ECF3983EDCF3869577956795B795F795BE
:1013B000E7959F5FC1F7FE2B880F911D9695879546
:1013C00097F9089597F99F6780E870E060E00895C5
:1013D0009FEF80EC089500240A941616170618064D
:1013E0000906089500240A94121613061406050629
:1013F0000895092E0394000C11F4882352F0BB0FBA
:1014000040F4BF2B11F460FF04C06F5F7F4F8F4F1C
:101410009F4F089557FD9058440F551F59F05F3F57
:1014200071F04795880F97FB991F61F09F3F79F006
:1014300087950895121613061406551FF2CF469588
:10144000F1DF08C0161617061806991FF1CF86950A
:101450007105610508940895E894BB2766277727EE
:10146000CB0197F90895283008F027E03327DA01F7
:10147000990F311D87FD916000966105710539F462
:1014800032602E5F3D9330E32A95E1F708959F3F48
:1014900030F080387105610509F03C5F3C5F3D9399
:1014A000913008F08068911DDF93CF931F930F93C5
:1014B000FF92EF92192F987F9695E92F9695969522
:1014C000E90FFF27EA5BFE4F99273327EE24FF241D
:1014D000A701E70105900894079428F4360FE71E4A
:1014E000F81E491F511D660F771F881F991F06940C
:1014F000A1F70590079428F4E70EF81E491F561F20
:10150000C11D770F881F991F661F0694A1F70590CC
:10151000079428F4F80E491F561FC71FD11D880FC6
:10152000991F661F771F0694A1F70590079420F472
:10153000490F561FC71FD81F990F661F771F881F97
:101540000694A9F784911095177041F0D695C79528
:1015500057954795F794E7941A95C1F7ECEEF0E0AC
:1015600068941590159135916591959105907FE25C
:101570007395E118F10A430B560BC90BD009C0F75C
:10158000E10CF11E431F561FC91FD01D7EF470339E
:1015900011F48A95E6CFE894015030F0080F0AF470
:1015A0000027021708F4202F2395022F7A3328F002
:1015B00079E37D932A95E9F710C07D932A9589F602
:1015C000069497956795379517951794E118F10A42
:1015D000430B560BC90BD00998F023957E91739558
:1015E0007A3308F070E37C932013B8F77E91706132
:1015F0007D9330F0839571E37D9370E32A95E1F755
:101600001124EF90FF900F911F91CF91DF919927B7
:1016100087FD90950895911120C1803219F089506D
:101620008550D0F708959111089581548A5108F496
:10163000805E855A0895FC010590061621F0002071
:10164000D9F7C00108953197CF010895FC010590A5
:10165000615070400110D8F7809590958E0F9F1FB4
:101660000895FC016150704001900110D8F78095F9
:1016700090958E0F9F1F0895CF93DF93EC012B81E0
:1016800020FF33C026FF0AC02F7B2B838E819F81D2
:1016900001969F838E838A8190E029C022FF0FC02C
:1016A000E881F9818081082E000C990B009719F4CC
:1016B00020622B831AC03196F983E8830EC0EA8535
:1016C000FB85199597FF09C02B81019611F080E2E7
:1016D00001C080E1822B8B8308C02E813F812F5F68
:1016E0003F4F3F832E83992702C08FEF9FEFDF91FB
:1016F000CF9108950F931F93CF93DF93FB01238125
:1017000021FD03C08FEF9FEF2CC022FF16C0468142
:101710005781248135814217530744F4A081B18158
:101720009D012F5F3F4F318320838C93268137812A
:101730002F5F3F4F3783268314C08B01EC01FB01E1
:101740000084F185E02D1995892BE1F6D8011696D4
:101750008D919C911797019617969C938E9316974F
:10176000CE01DF91CF911F910F910895FB0123814D
:1017700020FF12C026FD10C08F3F3FEF930761F09E
:1017800082832F7D20642383268137812150310974
:1017900037832683992708958FEF9FEF0895FA01E5
:1017A000AA27283051F1203181F1E8946F936E7FA0
:1017B0006E5F7F4F8F4F9F4FAF4FB1E03ED0B4E091
:1017C0003CD0670F781F891F9A1FA11D680F791FD2
:1017D0008A1F911DA11D6A0F711D811D911DA11DE3
:1017E00020D009F468943F912AE0269F11243019F3
:1017F000305D3193DEF6CF010895462F4770405D8E
:101800004193B3E00FD0C9F7F6CF462F4F70405D3C
:101810004A3318F0495D31FD4052419302D0A9F797
:10182000EACFB4E0A6959795879577956795BA9591
:10183000C9F700976105710508959B01AC010A2E57
:1018400006945795479537952795BA95C9F7620F2E
:10185000731F841F951FA01D089599278827089539
:04186000F894FFCF2A
:0E186400000000030000000057015F010000BB
:00000001FF
